:040000000C942A0032
:100004000C9400000C9400000C9400000C9400006C
:100014000C9400000C9400000C9400000C9400005C
:100024000C9400000C9400000C9400000C9400004C
:100034000C9400000C9400000C9400000C9400003C
:100044000C9400000C9400000C9400000C9400002C
:10005400F894EE27ECBBF1E0FBBFEBBFE5BF8DE00E
:10006400A2E0BB27ED938A95E9F780E098E0A0E64B
:10007400ED930197E9F7EFE5EDBFE8E0EEBFC0E6E9
:10008400D2E00C9445001AEAEFEFE4BBE0E0E5BBF4
:1000940015BBA8EEB3E00E945800E12FE095E5BB44
:1000A400A8EEB3E00E945800F3CFFFCF109639F0CA
:1000B40080ED97E00197F1F7A8951197C9F7089596
:00000001FF
