:0C0000000C942A000C9400000C940000EA
:10000C000C9400000C9400000C9400000C94000064
:10001C000C9400000C9400000C9400000C94000054
:10002C000C9400000C9400000C9400000C94000044
:10003C000C9400000C9400000C9400000C94000034
:10004C000C9400000C940000F894EE27ECBBF1E04B
:10005C00FBBFEBBFE5BF8DE0A2E0BB27ED938A951C
:10006C00E9F780E098E0A0E6ED930197E9F7EFE57A
:10007C00EDBFE8E0EEBFC0E6D2E00C944500289757
:10008C00EEE0E883ECE0E983EDE0EA83E9E0EB8382
:10009C00EBE0EC83E3E0ED83E7E0EE83E6E0EF8377
:1000AC00EFE0E4BBE0E0E5BBEA81E5BBFDCFFFCFD1
:00000001FF
