:0E0000000C9441000C9400000C9400000C9431
:10000E0000000C9400000C9400000C9400000C9462
:10001E0000000C9400000C9400000C9400000C9452
:10002E0000000C9400000C9400000C9400000C9442
:10003E0000000C9400000C9400000C9400000C9432
:10004E0000000C94000009006164696E65706F75A4
:10005E00720072657A61000080C0010005005400D4
:10006E0009006502560005006002600002006F0282
:10007E0066000000F894EE27ECBBF1E0FBBFEBBF8F
:10008E00E5BF8DE0A2E0BB27ED938A95E9F780E00E
:10009E0098E0A0E6ED930197E9F7E8E6F0E08591A8
:1000AE009591009761F0A591B59105901590BF01BE
:1000BE00F00105900D920197E1F7FB01F0CFEFE50E
:1000CE00EDBFE8E0EEBFC0E6D2E00C946E00A0E11A
:1000DE00A6D0E5E0EA93A0E065D0A0E6B2E08ED02F
:1000EE0066247724E52DF0E031966E167F0694F4A3
:1000FE0088249924BFD0E815F9053CF0C0D0CAD0A9
:10010E00F40131964F013197F5CFF30131963F014E
:10011E003197E8CFA8EEB3E00E94650166247724FC
:10012E00E52DD301F0E0AE17BF07B4F4E52DF0E0F6
:10013E003196E619F7094F01E1E1F0E0E815F9050E
:10014E0034F09DD0A7D0F40131964F01F5CFF301D5
:10015E0031963F013197E4CFA8EEB3E00E946501DE
:10016E00B8CFFFCFAA93EBB3EF70AE2FE881E07F4D
:10017E00EA2BEBBB8DE08A95F1F7DB9A8DE08A9541
:10018E00F1F7DB988DE08A95F1F772C0AA93A881FA
:10019E00E9DFE881E295E883A881E4DF85E88A95C6
:1001AE00F1F766C0AA93E881F0E0E159FD4FE081D6
:1001BE00A981AE0FEBDF4980B88022960895A2E0A8
:1001CE0071D0ACE0E3DFA1E06DD0E0E0BE2E4E2EAC
:1001DE000895AA93A881AA3011F04A1448F0E0E0DD
:1001EE00EA93B394AB2DDEDFA881AA3009F440C0A8
:1001FE004394D99AA881CADFD9983AC0BA93AA93E0
:10020E001A93A981BA81ED91A983BA831E2FE0308A
:10021E0019F0A12FDEDFF5CF188123960895AA934A
:10022E00EAB3E06FEABBD39AD19AD29ADB98D99807
:10023E00DA98A880E881E058E0937102E881E054F2
:10024E00E0937202A4E1B0E00E94650130D02FD09D
:10025E002ED0A0E287DF88EC90E00197F1F7A8E2BC
:10026E0095DFA4E093DFA5E891DFA6E08FDFA7DF9F
:10027E0021960895E52DF0E0E619F7090895E82D89
:10028E00E150EA93A1E08EDFA0E2A3DF8A92A1E023
:10029E0089DFF0CFEB59FD4FA0819BDFA2E3B0E0E9
:1002AE000C94650173DFA3E0B0E00C946501A0E34C
:1002BE0059DF88EC90E00197F1F70895109639F028
:1002CE00A89580ED97E00197F1F71197C9F708957A
:00000001FF
