:0A0000000C9430000C9400000C94E6
:10000A0000000C9400000C9400000C9400000C9466
:10001A0000000C9400000C9400000C9400000C9456
:10002A0000000C9400000C9400000C9400000C9446
:10003A0000000C9400000C9400000C9400000C9436
:10004A0000000C9400000C94000001000000040061
:10005A00040054000000F894EE27ECBBF1E0FBBF6B
:10006A00EBBFE5BF8DE0A2E0BB27ED938A95E9F7E8
:10007A0080E098E0A0E6ED930197E9F7E8E5F0E083
:10008A0085919591009761F0A591B591059015908C
:10009A00BF01F00105900D920197E1F7FB01F0CF46
:1000AA00EFE5EDBFE8E0EEBFC0E6D2E00C945D00FC
:1000BA00EFEFEABBE0E0EBBBEFEFE7BBE0E0E8BB6A
:1000CA00EFEFE4BBE0E0E5BBEFEFE1BBE0E0E2BB72
:1000DA00E1E0F0E02F01E0E0F1E04E165F06A0F467
:1000EA004BBAA8ECB0E00E948B00F30131963F01B5
:1000FA00E0E2F0E0E615F70521F4E0E0F0E03F0188
:10010A002F01440C551CE7CFE3CFFFCF109639F0EF
:10011A00A89580ED97E00197F1F71197C9F708952F
:00000001FF
