:0E0000000C942F000C9400000C9400000C9443
:10000E0000000C9400000C9400000C9400000C9462
:10001E0000000C9400000C9400000C9400000C9452
:10002E0000000C9400000C9400000C9400000C9442
:10003E0000000C9400000C9400000C9400000C9432
:10004E0000000C9400007300010005005400000035
:10005E00F894EE27ECBBF1E0FBBFEBBFE5BF8DE004
:10006E00A2E0BB27ED938A95E9F780E098E0A0E641
:10007E00ED930197E9F7E6E5F0E08591959100970C
:10008E0061F0A591B59105901590BF01F001059015
:10009E000D920197E1F7FB01F0CFEFE5EDBFE8E040
:1000AE00EEBFC0E6D2E00C945C00E0E0EABBEFEFFE
:1000BE00EBBBE7BBE0E0E8BBEFEFE4BBE0E0E5BBAA
:1000CE00EFEFE1BBE0E0E2BBC89B02C0C99901C003
:1000DE0005C055BAE0E0E8BBE2BB37C0C89902C024
:1000EE00C99901C00EC0E0E0E5BBC39AC29AA0E771
:1000FE00B7E12DD0A0EABFE00E94BD00C598C09820
:10010E0024C0C89B02C0C99B01C00EC0E0E0E5BB85
:10011E00C39AC29AA8E8B3E11AD0A8E8B3E10E9444
:10012E00BD00C598C09811C0C89902C0C99B01C036
:10013E000CC0C49AC09AA4EFB1E00E94BD00C4984E
:10014E00C098A4EFB1E00E94BD00BECFFFCF0E94C9
:10015E00BD00C398C298C49AC19AA8EEB3E00E949B
:10016E00BD00C498C198C59AC09A0895109639F0EA
:10017E00A89580ED97E00197F1F71197C9F70895CB
:00000001FF
