:080000000C9432000C94000086
:100008000C9400000C9400000C9400000C94000068
:100018000C9400000C9400000C9400000C94000058
:100028000C9400000C9400000C9400000C94000048
:100038000C9400000C9400000C9400000C94000038
:100048000C9400000C9400000C9400000E0C0D0998
:100058000B0307060800600254000000F894EE271E
:10006800ECBBF1E0FBBFEBBFE5BF8DE0A2E0BB2737
:10007800ED938A95E9F780E098E0A0E6ED93019783
:10008800E9F7ECE5F0E085919591009761F0A5918D
:10009800B59105901590BF01F00105900D9201975B
:1000A800E1F7FB01F0CFEFE5EDBFE8E0EEBFC0E61A
:1000B800D2E00C945F00E0E0EABBE1E0EBBBEFEFDD
:1000C800E7BBE0E0E8BBEFE0E4BBE0E0E5BBEFEF77
:1000D800E1BBE0E0E2BBE0916002E5BBFCCFFFCF13
:00000001FF
