:0E0000000C942A000C9400000C9400000C9448
:10000E0000000C9400000C9400000C9400000C9462
:10001E0000000C9400000C9400000C9400000C9452
:10002E0000000C9400000C9400000C9400000C9442
:10003E0000000C9400000C9400000C9400000C9432
:10004E0000000C940000F894EE27ECBBF1E0FBBF2F
:10005E00EBBFE5BF8DE0A2E0BB27ED938A95E9F7F4
:10006E0080E098E0A0E6ED930197E9F7EFE5EDBFAC
:10007E00E8E0EEBFC0E6D2E00C944500EFEFEABB3D
:10008E00E0E0EBBBEFEFE7BBE0E0E8BBEFEFE4BB9C
:10009E00E0E0E5BBEFEFE1BBE0E0E2BBE0E0EBBBB5
:1000AE00DB9ADA9AA0E4BFE10E947500DA98D99A39
:1000BE00A0EDB7E00E947500DB98D998DC9AD89A2B
:1000CE00A0EDB7E00E947500DC98DD9AA0E4BFE1D8
:1000DE000E947500D898DD98E1CFFFCF109639F0C9
:1000EE00A89580ED97E00197F1F71197C9F708955C
:00000001FF
