:100000000C942F000C9400000C9400000C94000041
:100010000C9400000C9400000C9400000C94000060
:100020000C9400000C9400000C9400000C94000050
:100030000C9400000C9400000C9400000C94000040
:100040000C9400000C9400000C9400000C94000030
:100050000C94000001000200040054000000F89419
:10006000EE27ECBBF1E0FBBFEBBFE5BF8DE0A2E00C
:10007000BB27ED938A95E9F780E098E0A0E6ED9341
:100080000197E9F7E6E5F0E085919591009761F039
:10009000A591B59105901590BF01F00105900D92C5
:1000A0000197E1F7FB01F0CFEFE5EDBFE8E0EEBF30
:1000B000C0E6D2E00C945C00EFEFEABBE0E0EBBB03
:1000C000EFEFE7BBE0E0E8BBEFEFE4BBE0E0E5BB70
:1000D000EFEFE1BBE0E0E2BBE1E0F0E02F01E0E0C8
:1000E000F1E04E165F0640F44BBAA8ECB0E00E9477
:1000F0007E00440C551CF3CFEFCFFFCF109639F0A4
:10010000A89580ED97E00197F1F71197C9F7089549
:00000001FF
