:020000000C945E
:1000020030000C9400000C9400000C9400000C943E
:1000120000000C9400000C9400000C9400000C945E
:1000220000000C9400000C9400000C9400000C944E
:1000320000000C9400000C9400000C9400000C943E
:1000420000000C9400000C9400000C9400000C942E
:100052000000010000000400040054000000F894B5
:10006200EE27ECBBF1E0FBBFEBBFE5BF8DE0A2E00A
:10007200BB27ED938A95E9F780E098E0A0E6ED933F
:100082000197E9F7E8E5F0E085919591009761F035
:10009200A591B59105901590BF01F00105900D92C3
:1000A2000197E1F7FB01F0CFEFE5EDBFE8E0EEBF2E
:1000B200C0E6D2E00C945D00EFEFEABBE0E0EBBB00
:1000C200EFEFE7BBE0E0E8BBEFEFE4BBE0E0E5BB6E
:1000D200EFEFE1BBE0E0E2BB772099F4EBB3E42978
:1000E200EBBBA8ECB0E00E949700440C551CEFEF6C
:1000F200F0E04E165F0628F0E1E07E2EEFEFF0E032
:100102002F01E1E0E71581F4EBB3E421EBBB569458
:100112004794A8ECB0E00E949700042C052821F433
:100122007724E1E0F0E02F01D7CFFFCF109639F02E
:10013200A89580ED97E00197F1F71197C9F7089517
:00000001FF
