:0C0000000C9441000C9400000C940000D3
:10000C000C9400000C9400000C9400000C94000064
:10001C000C9400000C9400000C9400000C94000054
:10002C000C9400000C9400000C9400000C94000044
:10003C000C9400000C9400000C9400000C94000034
:10004C000C9400000C94000072657A612061646964
:10005C006E65706F7572003938313433303300008F
:10006C0080C00F006002540008006F0263000200A1
:10007C0077026C000000F894EE27ECBBF1E0FBBFBC
:10008C00EBBFE5BF8DE0A2E0BB27ED938A95E9F7C6
:10009C0080E098E0A0E6ED930197E9F7EEE6F0E05A
:1000AC0085919591009761F0A591B591059015906A
:1000BC00BF01F00105900D920197E1F7FB01F0CF24
:1000CC00EFE5EDBFE8E0EEBFC0E6D2E00C946E00C9
:1000DC00A0E16DD0E0E0EA93A0E02CD0A0E6B2E085
:1000EC0055D0E0E0EA93A1E025D0AFE6B2E04ED0E7
:1000FC00FFCFFFCFAA93EBB3EF70AE2FE881E07F79
:10010C00EA2BEBBB8DE08A95F1F7DB9A8DE08A95B3
:10011C00F1F7DB988DE08A95F1F772C0AA93A8816C
:10012C00E9DFE881E295E883A881E4DF85E88A9538
:10013C00F1F766C0AA93E881F0E0E958FD4FE08141
:10014C00A981AE0FEBDF5980488022960895A2E07A
:10015C0059D0ACE0E3DFA1E055D0E0E04E2E5E2EAE
:10016C000895AA93A881AA3011F0571448F0E0E042
:10017C00EA934394A42DDEDFA881AA3009F440C091
:10018C005394D99AA881CADFD9983AC0BA93AA9342
:10019C001A93A981BA81ED91A983BA831E2FE030FD
:1001AC0019F0A12FDEDFF5CF188123960895AA93BD
:1001BC00EAB3E06FEABBD39AD19AD29ADB98D9987A
:1001CC00DA987880E881E058E0937902E881E0548D
:1001DC00E0937A02A4E1B0E00E94140118D017D089
:1001EC0016D0A0E287DF88EC90E00197F1F7A8E247
:1001FC0095DFA4E093DFA5E891DFA6E08FDFA7DF12
:10020C00219608958BDFA3E0B0E00C941401A0E3D9
:10021C0071DF88EC90E00197F1F70895109639F0B2
:10022C00A89580ED97E00197F1F71197C9F708951C
:00000001FF
