:060000000C940E070C94A5
:1000060000000C9400000C9400000C9400000C946A
:1000160000000C9400000C9400000C9400000C945A
:1000260000000C9400000C946A0B0C9400000C94D5
:1000360000000C9400000C9400000C9400000C943A
:1000460000000C9400000C9400000C9400000000CA
:10005600000000000000000000000000000000009A
:10006600000000000000000000000000000000008A
:10007600000000000000000000000000000000007A
:10008600000000000000000000000000000000006A
:10009600000000000000000000000000000000005A
:1000A600000000000000000000000000000000004A
:1000B600000000000000000000000000000000003A
:1000C60000000000000000000000000000002020EA
:1000D600282868B060202020282A28302020008088
:1000E600804432242020002424243820202020206C
:1000F6002020242A1100202020242A11202030200C
:100106002020242A112020203020302828182024BE
:100116002221242A1100242221242A1120203024DD
:100126002221242A112000808040302020202020F7
:100136002060A060283020202060B06020200030A1
:100146002860A06030200004061D25242020000021
:1001560000000000000000004F0000000000000743
:1001660000070000000000147F147F140000002424
:100176002A7F2A120000002313086462000000365A
:100186004955224000000000050300000000001C45
:100196002241000000000041221C00000000001463
:1001A600083E081400000008083E08080000000089
:1001B6002818000000000008080808080800003099
:1001C6003000000000000020100804020000003E7D
:1001D6005149453E00000000427F400000000042B9
:1001E600615149460000002141454B31000000188D
:1001F60014127F1000000000274545453900003CD9
:100206004A49493000000001710905030000003623
:1002160049494936000000064949291E00000000E8
:1002260036360000000000005636000000000008C8
:10023600142241000000002424242424000000008D
:100246004122140800000002015109060000003294
:100256004979413E0000007E1111117E0000007FA9
:10026600494949360000003E414141220000007FD5
:100276004141221C0000007F494949410000007F9E
:10028600090909010000003E4149493A0000007F82
:100296000808087F00000000417F410000000020A0
:1002A60040413F010000007F081422410000007F0A
:1002B600404040400000007F020C027F0000007FAB
:1002C6000408107F0000003E4141413E0000007FCF
:1002D6000909090600003E4151215E000000007F29
:1002E6000919294600000046494949310000000124
:1002F600017F01010000003F4040403F0000001F19
:100306002040201F0000003F4060403F0000006387
:100316001408146300000007087008070000006155
:10032600514945430000007F41410000000000158F
:10033600167C161500000041417F000000000004F5
:10034600020102040000004040404040000000015D
:100356000204000000000020545454780000007F7E
:100366004444443800000038444444000000003847
:100376004444487F000000385454541800000010CC
:100386007E1101020000000C5252523E0000007F16
:100396000804047800000000447D400000000020AE
:1003A60040403D000000007F10284400000000008F
:1003B600417F40000000007C041804780000007CA7
:1003C6000804047800000038444444380000007CE7
:1003D60014141408000000081414187C0000007C93
:1003E6000804040800000048545454200000000487
:1003F6003F4440200000003C4040207C0000001CA0
:100406002040201C0000001E2010201E000000229C
:1004160014081422000000064848483E0000004424
:1004260064544C44000000083641000000000000FF
:10043600007F0000000000413608000000000008B0
:10044600082A1C08000000081C2A08080000003CB6
:100456004241423C000000302860A0602830202045
:100466002020A020283020202020B020202000306E
:100476002820A020302020202022202228302020C2
:100486002022302220200030282220223020202046
:100496002022212228302020202231222020003034
:1004A6002822212230202020282828B02020202081
:1004B60028282830202000C0A82868B06020000026
:1004C6008080443204000024252438202020302453
:1004D6002221242A11000080804034202020202060
:1004E60020382038201820203820382038206080F6
:1004F6008078203820182020203822392218202001
:10050600382239223820608080782239221830201B
:100516002020242A1100203020302828382060800E
:100526008060302828382020302030282A182030B3
:100536002030282A38206080806030282A38202001
:100546003E302828382020203E30282A38202020F7
:100556002020302828002020203028282020004075
:10056600A0B0282820202020202030282A00202063
:100576002030282A20200040A0B0282A2020202031
:10058600202030282A30202030282A302020001829
:10059600202030282A3020202020302A28322020EF
:1005A600302A28322020608080B2A87A2020222596
:1005B6002525252525192020201C2221202030280C
:1005C6002C2A203F20202020202020201F00202011
:1005D60020201F202020003040403F2020202020C7
:1005E60020203048483020203048483020208040A5
:1005F60030484830202020202020222018002020AB
:1006060020201A2020203040444030202020202066
:100616002030283A2C18202030283A2C3820001870
:100626001414182020200021222428100F0000B0C6
:10063600A87820202020202020A020A028302020BC
:1006460020A030A0202000608080A0501020001E36
:100656002020202020200020302828200000000410
:1006660002023A020201000004063D0504000000F1
:1006760004B6AD7D0400000080C0BFA08000046603
:100686008595A8A848000000003F00000000003043
:100696002820A02028300000302A28320000003010
:1006A600282220222830003028222122283000C08B
:1006B600A8A828B0202000C0A8A8A830202000C0E4
:1006C600A8AA283020200000242424380000000096
:1006D60024252438000000808040300000000000FF
:1006E6008080403400006080807820382018608048
:1006F600807822392218608080603028281860802F
:10070600806030282A1800221408142200002020B5
:100716003E302828180020203E30282A18000000E5
:1007260040A0B0282800000040A0B02A28002020C1
:100736002020202020200018202030282A30006089
:100746008080B2A87A000030282C2A203F00004082
:10075600A9AAA8F0000000006080807E000000408A
:10076600AAA9AAF000000000C02030282830000006
:10077600608088806000000030282830000000007B
:1007860000B0A87800000426252528100F000422B2
:10079600222629100F0000212224A8D0AFA0007025
:1007A600AAA9AA3000000070AAA8AA30000000304A
:1007B6004040502808000030404050280800000003
:1007C600027902000000000002780200000000002A
:1007D60000000005050500000004030B0606A0A0A6
:1007E600A00000000000000001010101000000213E
:1007F600222428102F20000000000004030300001C
:10080600808080800000000010105410100000004E
:100816000204020402002024262525202830202454
:10082600262535202020086C8A8AA050102004B680
:10083600AD7D242020200019141518202020040244
:10084600021A222221200040605048504040C1C177
:10085600C1C10000C2C2FEFE0100C3C31F1F0100CA
:10086600C4C4FCFC0100C5C5C5C50101C6BDBFBEEB
:100876000101C7C7C0C00100C88284830101C9C97C
:10088600FDFD0100CA8587860101CB888A890101A1
:10089600CC8BCC8B0101CD8CCD8C0101CE11CE1130
:1008A6000101CFCF13130100D0D08F8F0100D1D11A
:1008B6001B1B0100D2D291910100D39294930101A6
:1008C600D49597960101D5179A990101D69B9D9CBF
:1008D6000101D7D7D7D70000D8D89E9E0101D9D914
:1008E6009F9F0101DAA0A2A10101DBA3A5A401013A
:1008F600DCDCDCDC0000DDA6A8A70101DEA9ABAAD2
:100906000101DFACAEAD0101E0E0E0E00000E1AFE7
:10091600B1B00101E2E2E2E20000E3B2B4B30101E8
:10092600E4B5B7B60101E5B8BAB90101E6E6BCBC63
:100936000100E7E7E7E70000E8E8E8E80000E9E9A2
:10094600E9E90000EAEAEAEA0000EBEBEBEB00007B
:10095600ECBDBFBE0101EDBDBFBE0101EEEEEEEE88
:100966000000EFEFEFEF0000F0F0F0F00000F1F123
:10097600F1F10000F2F2F2F20000F3F3F3F30000FB
:10098600F5F5F5F50000F6F6F6F60000F7F7F7F7D9
:100996000000F8F8F8F80000FBF9FBFA0101BBBB10
:1009A600F4F40100811C1E1D010190181A190101A1
:1009B6009814161501018E8E121201008D108D10DD
:1009C60001010000000000000000000000808040DF
:1009D600202090880800040402020202010101019D
:1009E60001F901010101010102020202040480C8A9
:1009F6000810202040808000000000000000000059
:100A060000000000000000000000000000000000E0
:100A160000000000000000000000000000000000D0
:100A260000000000000000000000000000000000C0
:100A360000000000000000000000000000000000B0
:100A460000000000000000C020180C020101000098
:100A56000000000106080000000000000000000081
:100A66000001000000000000000000000006030076
:100A76000000000000000101020C1820C000000068
:100A86000000000000000000000000000000000060
:100A96000000000000000000000000000000000050
:100AA6000000000000000000000000000000000040
:100AB6000000000000000000000000000000000030
:100AC600000000C03006010006040C0810100000EB
:100AD6000000000000000000000000000000000010
:100AE6000000000000000000000000000000000000
:100AF6000000000000080804040202000001063895
:100B0600C00000000000000000000000000000001F
:100B160000000000000000000000000000000000CF
:100B260000000000000000000000000000000000BF
:100B360000000000000000000000000000000000AF
:100B46000000FC03000000000000000000000000A0
:100B5600000000000000000000000000000000008F
:100B6600000000000000000000000000000000007F
:100B7600000000000000000000808080808080006F
:100B860003FC000000000000000000000000000060
:100B9600000000000000000000000000000000004F
:100BA600000000000000000000000000000000003F
:100BB600000000000000000000000000000000002F
:100BC60000003FC001010101010101000000000019
:100BD600000000000000000000000000000000000F
:100BE60000000000000000000000000000000000FF
:100BF60000000000000000000000000000000000EF
:100C0600C03F0000000000000000000000000000DF
:100C160000000000000000000000000000000000CE
:100C260000000000000000000000000000000000BE
:100C360000000000000000000000000000000000AE
:100C4600000000030C6080000040602010180000C7
:100C5600000000000000000000000000000000008E
:100C6600000000000000000000000000000000007E
:100C76000000000000000808103020000080601C02
:100C8600030000000000000000000000000000005B
:100C9600000000000000000000000000000000004E
:100CA600000000000000000000000000000000003E
:100CB600000000000000000000000000000000002E
:100CC600000000000000000304183040808000008F
:100CD6000000000080E0300000000000000000007E
:100CE600000080000000000000000000000030C08E
:100CF60080000000000080804030180403000000DF
:100D060000000000000000000000000000000000DD
:100D160000000000000000000000000000000000CD
:100D260000000000000000000000000000000000BD
:100D360000000000000000000000000000000000AD
:100D46000000000000000000000000000001010299
:100D560004040812112020204040404080808080FA
:100D660080809F80808080804040404020202010EE
:100D76001108040402010100000000000000000048
:100D8600000000000000000000000000000000005D
:100D9600000000000000000000000000000000004D
:100DA600000000000000000000000000000000003D
:100DB600000000000000000000000000000000002D
:100DC60000001027E80364000A000100001000017B
:100DD60010000100C100000000000000000000003B
:100DE600000000000000140017000F0025303264D8
:100DF6003A253032643A25303264000001002D4E27
:100E0600414E00494E46000001006002DA0D010025
:100E16007302020E0000F894EE27ECBBF1E0FBBF74
:100E2600EBBFE5BF8DE0A2E0BB27ED938A95E9F71E
:100E360080E098E0A0E6ED930197E9F7EEE0FEE0AA
:100E460085919591009761F0A591B59105901590C2
:100E5600BF01F00105900D920197E1F7FB01F0CF7C
:100E6600EFE5EDBFE8E0EEBFC0E6D2E00C94850BFF
:100E7600DD9A81E08A95F1F7DD9881E08A95F1F7B0
:100E86000895DC9ADB9ADF98DE98EFE3E5BBF0DFA6
:100E96000895BA93AA931A93DF98DE98A981BA8126
:100EA600A034E0E0BE0720F4DC9ADB98198105C087
:100EB600DB9ADC98E981E0541E2FE12FE064EF779E
:100EC6001E2F15BBD5DF18813FC0BA93AA931A937C
:100ED600DF98DE98E981E86BEF7B1E2F15BBC8DF34
:100EE600188132C0BA93AA93AA81BB81D2DFA881A6
:100EF600B981EBDF24960895AA93DF9ADE98E881FC
:100F0600E5BB83E08A95F1F7B3DF21960895AA93AE
:100F16001A930A930E946A0FAC81BB27E3DFE0E4D1
:100F2600F0E0FA93EA93AC81BB27DCDFDC9A00E0C1
:100F360010E00134E0E01E072CF4A0E0DDDF0F5FD7
:100F46001F4FF7CF19810881239608951A930A93A4
:100F560000E010E00830E0E01E072CF4A02FD7DFF9
:100F66000F5F1F4FF7CF099119910895AA931A930E
:100F760010E0E0E0E4BBDE9ADF9AA981E0E40E949B
:100F86002113E03011F4DC9801C0DC9ADC9B02C02E
:100F9600DB9801C0DB9A83E08A95F1F7DD9A83E05E
:100FA6008A95F1F7DD9887E08A95F1F7DD9A83E077
:100FB6008A95F1F713B3DD9883E08A95F1F7EFEFA1
:100FC600E4BBE12F188122960895AA931A930E94F2
:100FD6006F0FE981F0E0309761F4EA81E770A1E0F4
:100FE6000E940113E095EF93AC81C0DFAF91EA2335
:100FF6000EC0E130A0E0FA0759F4EA81E770A1E0FB
:101006000E940113EF93AC81B1DFAF91EA2B1E2F43
:101016000E946F0FA12F70DF188126960895AA935C
:101026001A930A930F811885EC81F0E0AF81B88599
:10103600EA0FFB1F0E171F0758F41A930A93EF8146
:10104600F885FA93EA93AE81C0DF0E947A0FECCF5F
:101056001981088129960895AA931A930A930E81F5
:101066001F81EC81FD81AE81BF81EA0FFB1F0E1748
:101076001F0748F40E94820F1A930A93AE81A5DFD8
:101086000E947A0FEECF198108812A960895AA93B5
:1010960028970E94B6130E94870FB9F40E948E0FFC
:1010A6000E948E0F0E94930FA88DB98DEC89FD8941
:1010B600EA1BFB0BDF010E94630E3196FA93EA935B
:1010C600ED89EA93AD89C8DFE2C0E889F989AC8980
:1010D600BD89EA17FB07A9F40E948E0F0E94930FA1
:1010E6000E948E0FAA8DBB8DEE89FF89EA1BFB0B32
:1010F600DF010E94630EEF5FEA93EC890E949A0F6C
:10110600C6C00E94870F90F43E89EA89FB89EE8B60
:10111600FF8BE32FF0E0EA8BFB8B3C89E889F989AA
:10112600EC8BFD8BE32FF0E0E88BF98BAC89BD8966
:10113600E889F989EA1BFB0B0E949E0F7F936F9348
:10114600FF93EF93AE89BF89EA89FB89EA1BFB0B04
:10115600AF91BF918F919F910E94A30F0E9487121A
:10116600EA87FB876C877D870E94A80FAC89BD89BB
:10117600882799270E94A6130E94B20FEE83FF8349
:10118600688779870E94A80F0E94B70F0E94761180
:101196002E2F522FEE89EF5F1E2F0E94BE0F08F4EE
:1011A6006CC0E12FF0E0AA85BB858C859D850E94E9
:1011B6009E0F0E9439120E94B70FA0E0B0E080E0B7
:1011C6009FE30E94E9110E9476110E2FA02FBB27E4
:1011D600E52F0E94C50F64F0E12FF0E03197FA93F6
:1011E600EA93E52F0E94CD0FA02FBB27E52F11C054
:1011F600A52FBB27E02F0E94C50FACF0E12FF0E032
:101206003197FA93EA93E02F0E94CD0FA52FBB27C3
:10121600E02FF0E0AE1BBF0B1197BA93AA93ED89AE
:10122600EA93AD8919DF0E94BE0F11F4021709F087
:101236000DC00E948E0FE02FF0E0FA93EA93AA8D7C
:10124600EE89EA1BEA93E0E00E949A0F502F0217FC
:1012560091F00E948E0FE22FF0E0FA93EA93AA8DA6
:10126600E12FEA1BEA93E0E00E949A0FE12FF0E0FB
:10127600EE8BFF8B202F1F5F90CFEA89FB89FA93B5
:10128600EA93EA89FB89FA93EA93AA899EDE0E9489
:10129600BD1368960895BA93AA931A93AB81BC813D
:1012A600F8DDA981BA8111DE10E0183040F4ED8135
:1012B600FE810E94D40FA4911FDE1F5FF6CF188116
:1012C6002AC1AA930E94B81320E010E0EC811E17F1
:1012D600E0F400E00830B8F40E94DE0FE695EC93E7
:1012E600ED81E1703E2F303021F00E94DE0FE06884
:1012F600EC932F5FEC81E21721F4ED81E695ED8307
:1013060020E00F5FE7CF1F5FE1CF0E94BF13289653
:101316000895AA93EF9721970E94B8130E94E50FAC
:10132600B8DDDE01AB5BBF4F0D90BC91A02DCDDDCE
:1013360010E01830B8F40E94EC0FEA0FFB1FFA9386
:10134600EA93FE01E55BFF4F0190F081E02D0E94DC
:10135600D40FE491EA93DE01A95BBF4FAC91B1DFF4
:101366001F5FE7CF00E0FE01EC5BFF4FE0810E1749
:1013760008F046C010E0183090F530E0FE01EC5B56
:10138600FF4FE0813E1748F5E32FF0E00E94E50F9E
:10139600EA0FFB1FBF01DE01AC5BBF4FAC91BB2761
:1013A600E12FF0E00E944E13DB01AE0FBF1FA03409
:1013B600E0E0BE0739F4E0E4F0E0FA93EA930E9435
:1013C600E50F90DD0E94EC0FAE0FBF1FEE27A00FBA
:1013D600BE1FAC9191DD3F5FD1CF1F5FCCCFFE0129
:1013E600E95BFF4F0190F081E02DFA93EA93DE016D
:1013F600A95BBF4F0E94F30FDF0174DD0F5FB3CF10
:101406000E94BF13EF962C960895AA93A981A13046
:1014160009F077C0EE81F0E0E138A0E0FA0711F4B8
:10142600EAEF17C0E039A0E0FA0711F4EBEF11C0BC
:10143600E839A0E0FA0711F4ECEF0BC0EE38A0E0B3
:10144600FA0711F4EDEF05C0ED38A0E0FA0711F444
:10145600EEEFEE83AE81A13CA0F0A0916002B091C8
:101466006102A13CE0E0BE0764F00E94F90F3596E8
:10147600E491E03031F00E9406103496E491E030B9
:1014860009F418C00E94F90FDF01E0916202F0E052
:101496003196EA0FFB1FE491F0E0FA93EA93E091AC
:1014A6006302F0E0FA93EA93A0916402BB27F3DEAD
:1014B600E2E001C0E0E0E0936202AE81A13C50F0C0
:1014C6000E940610DF01E0916202F0E0EA0FFB1FC6
:1014D600E49101C0EE81F0E00E9411100E9411100B
:1014E600FA93EA93AE8115DFEE81F0E0E0936002B5
:1014F600F0936102EC81E0936302EA81E093640277
:101506000AC0EE81F0E00E9411100E941110FA93B9
:10151600EA93AE81FEDE27960895AA931A930A935C
:1015260010E000E00E94161018F4AC81A03009F01B
:1015360027C00E941F10EC91EA930E94820F0E941E
:10154600820FE0E00E9426100E942A10AF81B88523
:10155600EA0FFB1FEF83F8870E943510A0E8B0E082
:101566000E94AF13EA1BFB0BAF81B885EA17FB0796
:101576002CF4E0E0EF83E8870E943A101F5FD2CF99
:101586000E94161018F4AC81A13009F069C00E94BF
:101596001F10AC91A13E21F40E944310A73C09F014
:1015A60002C009EF23C00E941F10AC91A13E21F496
:1015B6000E944310A33C09F002C007EE17C00E9428
:1015C6001F10AC91A13E21F40E944310A23C09F0E9
:1015D60002C008EE0BC00E941F10AC91A13E21F480
:1015E6000E944310A53C09F001C009EE003079F0D5
:1015F6000A930E944B10E1E00E9426101E5F0E9493
:101606003510AF81B8850E94561000E018C00E94C0
:101616001F10EC91EA930E944B10E9850E94261058
:101626000E941F10AC91A03219F40E942A1002C029
:101636000E943510AF81B8850E9456101F5F0E9428
:1016460035103196AF81B885AE17BF0744F40E94B6
:101656003510A0E8B0E00E9456100E943A1090CFD4
:10166600E1ECF0E0E0936002F093610219810881F9
:101676002B960895BA93AA930E94B81308851985E4
:10168600EC81FD81E017F107F0F02A853B85EE81BC
:10169600FF81E217F307A0F03A932A93D80122DCE0
:1016A600A0E8A09FF001A19FF00DE20FF31FAC850B
:1016B600BD85EA0FFB1FA4911FDC2F5F3F4FE7CFCD
:1016C6000F5F1F4FDDCF0E94BF132E9608956A93BA
:1016D6007A93AA93BA93EA93FA93EFB7EA93AFE6AB
:1016E600B2E00E947D13EF5FFF4F6F4F7F4F0E9466
:1016F6008213E991EFBFF991E991B991A991799195
:1017060069911895A29786E1ACE0B0E0ECEDFDE0BA
:101716000E94C4130AE010E023E230E04EE150E0FC
:10172600F9010E949E0F0E945B10D8010E9464106E
:101736000E94E9110E949513EFEFEABBE0E0E4BBDB
:10174600E1E0E3BFE9BFE0E8E8B9E0E0E2BFECBF13
:1017560098DBFCDBE8ECF9E0FA93EA930E946A0F67
:101766000E946A0FEFE7F0E0FA93EA93A7E0B0E091
:1017760081DF0E9469100E946910A1E026DC78943E
:10178600E0916F02F09170026091710270917202A5
:10179600A0E0B1E080E090E00E945313DF01CB01AE
:1017A600E2B7F0E00E9417130E94F012AF33E2E4B2
:1017B600BE07EFE08E07E0E09E070CF4DDC00E9456
:1017C60069100E9469100E946E10A0E060DC4F5FF5
:1017D6005F4FE0E0E0936F02E0937002E0937102E6
:1017E600E0937202E2BF0E9481100E94450FA8A1F9
:1017F600B9A10E94A010E88FF98F6A8F7B8FE8A1AC
:10180600F9A10E94F512FF93EF930E9481100E94A6
:10181600BD0EAF91BF910E94A010EC8BFD8B6E8B1D
:101826007F8B0E9469100E9469100E94AA10A1E095
:101836002EDC0E94BD10DF01CB010E94450FAC8D4E
:10184600BD8D0E94A010E887F9876A877B87EC8D9B
:10185600FD8D0E94F512FF93EF930E94BD100E942A
:10186600CB10AF91BF910E94A010EC83FD836E83D5
:101876007F830E9469100E9469100E94CF10A1E028
:1018860006DC0E94E210DF01CB010E94450FAE8DFF
:10189600BF8D0E94A010E88BF98B6A8B7B8BEE8D37
:1018A600FF8D0E94F512FF93EF930E94E2100E94B3
:1018B600CB10AF91BF910E94A010EC87FD876E8779
:1018C6007F870E9469100E9469100E946E10A1E035
:1018D600DEDBE5E6F2E0FA93EA93E2EFFDE0FA9367
:1018E600EA93F8010E94F010F9010E94F010FA0143
:1018F6000E94F0108CE00E942F0E6096E5E6F2E062
:10190600FA93EA93ECE3F0E0FA93EA93E7E0F0E087
:10191600FA93EA93E0E0EA93E1E0EA93A0E0FDDDE2
:10192600EBE3F0E0E417F50739F540E050E02F5F10
:101936003F4F0E9469100E9469100E94CF10A0E0DC
:10194600A6DBEBE3F0E0E217F307B1F420E030E0CA
:101956000F5F1F4F0E9469100E9469100E94AA1013
:10196600A0E095DBE8E1F0E0E017F10729F4E0E01C
:10197600F0E0AF019F018F0103CFFFCFBA93AA9387
:101986001A930A93AA81BB8112960E947913309703
:1019960029F1AA81BB8114960E9479138F01309791
:1019A60061F00230E0E01E0780F0F80131978F0108
:1019B600AA81BB811496ED93FC93AA81BB811296F2
:1019C6000E94F30F3197AC81A083AA81BB810E944C
:1019D6007913FF2312F00E94F30F06C0AA81BB8180
:1019E600EFEFFFEFED93FC9319810881259608959B
:1019F600BA93AA9326970E94B61310E0AC85BD85CC
:101A0600E0E0F0E0ED93FC93EA89FB893196EA8BFE
:101A1600FB8B3197E4912E2FE03009F415C1E12FAD
:101A2600E03039F4253211F411E002C00E94F510BD
:101A36000AC1E130A9F4253219F40E94F51002C159
:101A460012E040E000E02D3211F401E0FCC02B3240
:101A560011F44BE2F8C0203211F440E2F4C002C0A7
:101A6600E23039F450E013E0203311F40068EBC0A3
:101A760003C0E33009F0E7C0203310F02A3308F042
:101A860007C0AAE05A9F502DE22FE0535E0FDBC03D
:101A9600E22FE33649F40E94FC10E889F989A48113
:101AA600AA930E940211CEC0E33741F40E94FC10B3
:101AB6000E9408110E94510F1E2F0AC0E03761F4E0
:101AC6000E94FC100E9408110E945D0F1E2F0860E4
:101AD60002600F7730E034C0E43611F0E93611F4D5
:101AE600046002C0E53731F4E8ECFDE0EE83FF83E5
:101AF60015E00CC0E83511F4086003C0E83709F0BA
:101B0600A1C0E2EDFDE0EE83FF8314E002FF14C006
:101B16000E94FC100E941211AB85AA233AF4EA85B2
:101B2600FB850E94F512EA87FB874DE2403011F0F3
:101B36001F5F01C00B7F04C00E94FC100E9412119F
:101B460000FD11C0151778F407FF08C002FF04C096
:101B56000B7F242F115001C020E301C020E20E9418
:101B6600F5105150EFCF312F01FF17C03030A1F0E3
:101B760003FF06C0EE81FF812591EE83FF8305C03A
:101B8600AE81BF812D91AE83BF830E94F510503088
:101B960009F051503150EACF4BC020E3EE81FF816E
:101BA6000E948713E887F987EE81FF813296EE83DC
:101BB600FF83E885F985AA85BB85AE17BF0750F078
:101BC6002F5FA885B985EA85FB85EA1BFB0BEA87AB
:101BD600FB87EFCF2A3328F003FF02C0295F01C03D
:101BE600295D04FD1AC0213320F4A885B985119713
:101BF60009F409C0531710F000FF01C013C020E21A
:101C060007FF0BC020E3006102FF07C00B7F4A936A
:101C16000E940211503009F051500E94F5105030C8
:101C260009F051503150A885B985129708F0B5CF03
:101C360000FF08C0503031F05150E0E2EA930E94B4
:101C46000211F8CF10E0E0CEAC85BD850E94791375
:101C56000E94BD1364960895FF92F82E26970E945F
:101C6600B8130E941A11309719F4EFEFFFEF23C053
:101C7600DE0116960E94EC128D010E941A11EE8367
:101C8600FF83E0E0E887E987DE011A960E94EC12FE
:101C96000E947913FA93EA931A930A93E1ECFCE013
:101CA600FA93EA93DE011A96A3DE9F01AE81BF8105
:101CB600E0E0EC93F9010E94BF132A96FF90089585
:101CC600BA93AA93E991F99130971AF4E095F095B1
:101CD60031960895BA93AA93A991B991E991F99188
:101CE600EA17FB070CF0FD0108950E949F137B8104
:101CF6006A81F981E88177FB770F67FD7160972F1D
:101D06009E5781F078F0983190F4AA27BB27882750
:101D160008948795B795A7959A95D1F7EA23FB235B
:101D2600682305C0E8947727EE27FF2766276F7795
:101D3600769508F4606877F9A991B9918991999196
:101D4600EA17FB076807790797FB08950E94211198
:101D56000E94780E0E94951319F40E948B139CC062
:101D6600E6F70E948B13A0E0B0E080E89FE30E94B4
:101D7600E21192C00E949F1324971A9310E00E94CA
:101D86002611E3E8F9EF62E27EE30E9439120E942F
:101D96002B11DCDF0E9426110E94B20F0E942B112C
:101DA600E0E0F0E060E07FE30E94CC1209F008F486
:101DB60009C00E943011A0E0B0E080E09FE30E94DD
:101DC600351111E00E942611E0E0F0E060E87EE3C4
:101DD6000E94CC1209F008F408C00E942611E0E027
:101DE600F0E060E07FE30E943511103041F00E9480
:101DF60030110E944311ED83FE836F8378870E9422
:101E060030110E9426110E943912E983FA836B83EE
:101E16007C83A1EBB4EC86E292E40E943912DF01E6
:101E2600CB01EDE1F5EE6DE272E40E94B20F0E9485
:101E36003C11ACE4B3E584E091E40E94E9110E9410
:101E460026110E9439127F936F93FF93EF93E981D6
:101E5600FA816B817C81A1E1BDEE8EED9FE30E944C
:101E6600E9110E943C11AEE5BBE788EA9FE30E94B8
:101E7600E911AF91BF918F919F910E9487121881AE
:101E8600299608950E942111EBEDFFE069EC7FE3AE
:101E96000E94E2110E94CB1024960895BA93AA9349
:101EA600A991B991EE27FF276D91662311F031961E
:101EB600FBCF0895BA93AA93AA27BB27E991F99174
:101EC6000590002011F01196FBCFFD010895E0E08A
:101ED600F0E0FA93EA930895EC81FD81FA93EA9390
:101EE600EC81FD810E941013DF010C947507EB81D4
:101EF600F0E03196F0E0F0E00E0F1F1F0895E88540
:101F0600F985FA93EA930895EA89FB89AE89BF8930
:101F1600EA17FB070895EE89FF89FA93EA93089575
:101F2600AC89BD890E946D0EFA93EA930895EA93EF
:101F3600AC890C9412080E9417130E94AF110895E1
:101F4600662777270E94AF110895EE89FF89AA8533
:101F5600BB858C859D85F4DF0E94391208950E9409
:101F6600A9130E94E2110895AE81BF8188859985E3
:101F76000E94E9110895EA89FB89A12FB0E0EA17CA
:101F8600FB070895F0E00E94AF13EA1BFB0BF0E09D
:101F9600E2300895F0E03196F0E0F0E0FA93EA934B
:101FA60008950E940913DF01E12FF0E0EA0FFB1FFD
:101FB600EC5AFF4F0895AE81BF81EE27A10FBE1FD9
:101FC600EC910895DE01A95BBF4F0D90BC91A02D49
:101FD6000895E12FF0E00E940913DE01149608959A
:101FE600ED91FD913196FE93EE930895E091600296
:101FF600F0916102E15CF040A6E0B0E00E94261399
:10200600EC5AF74F0895EE81F0E0E15CF040A6E06F
:10201600B0E00E942613EC5AF74F0895FA93EA931C
:10202600EE81FF810895A985BA850E94510FA12FDF
:10203600B0E0AE17BF070895E12FF0E0A985BA8595
:10204600AE0FBF1F0895EA93A9850C94080AEA818A
:10205600F0E0E7FDFFEF3896DF01EB81F0E00E944C
:102066004E130895EB81A8E0EA9FF0010895EB81F5
:10207600F0E0AD81BE81EA0FFB1FED83FE8308957C
:10208600E12FF0E0A985BA85EA0FFB1FA18108952B
:10209600EC81A8E0EA9FF001A885B985AE1BBF0BCD
:1020A600BA93AA932CCFAE1BBF0BAF83B887089504
:1020B600DF01CB01E0E0F0E060E772E40E94871206
:1020C60008950E941C130E94A6130895E0E2F0E012
:1020D600FA93EA930895EC89FD896E897F890E94B7
:1020E6007611FA93EA93EA89FB896C897D890E94C5
:1020F6007611FA93EA93E0E0EA9308950E9490132A
:10210600E0E0F0E060E470E40E94E211A0E0B0E0FC
:1021160080E090E40E943912A6E5BEE089E490E4EE
:102126000E943912DF01CB01E0E0F0E060E471E4E7
:102136000E948712DF01CB010895C3DF0E94391286
:10214600A0E0B0E080E092E40E94E9110895EC8DF1
:10215600FD8D6E8D7F8D0E947611FA93EA93EA8D3E
:10216600FB8D6C8D7D8D0E947611FA93EA93E0E0EB
:10217600EA930895EFE0F0E0E21BF30BEE0FFF1F8A
:10218600DADEA6E5BEE089E490E40E94391290CF3B
:10219600DF01CB010C94BD0EEC85FD856E857F8538
:1021A6000E947611FA93EA93EA85FB856C857D8514
:1021B6000E947611FA93EA93E0E0EA930895EFE03D
:1021C600F0E0E41BF50BEE0FFF1FB5DEA6E5BEE063
:1021D60089E490E40E9439126BCF0E9417130E9483
:1021E6009A1308952A93AD85BE85EF85F8890995DA
:1021F6000895E889F9893497E88BF98B0895AD85B8
:10220600BE85EF85F88909950895A889B989149638
:102216000E947913EE83FF83AE81BF810895A8895A
:10222600B98914960E947913EA87FB870895DE011F
:102236001C960E94EC120E94791308950E949F1327
:102246000E9490130895AD81BE818F81988508956F
:10225600ED83FE836F837887F6CFED81FE816F81F4
:10226600788508950E94E211ED83FE836F83788757
:102276000895A981BA818B819C810E9439120895A3
:1022860030976040704009F070580895552342F425
:10229600503811F4E0FF04C03196691F791F6BF0C6
:1022A60050E8572711F45F93CFC05F3F31F0660FB8
:1022B600000C57956795752F08955F9300200AF0D7
:1022C600CFC0C8C050E8192E1522880F991F952730
:1022D600550F879550E8072E0522660F771F75273D
:1022E600550F67950895689401C0E8945F93F2DFEF
:1022F600703818F07F3F08F4A7C056E1571BAAF4C0
:10230600519558300EF4593030F0EFEFFFEF6FEF84
:102316007FE777F91AC077275523B9F0EE0FFF1F2D
:10232600661F771F5A95D1F710C07727583028F0C7
:10233600EF2FF62F672F5850F9CF552331F07695AA
:102346006795F795E7955A95D1F700200AF44ED18F
:102356005F910895689401C0E8943097604070409A
:10236600B1F0002426F0772312F400943FD1172E03
:102376007EE1112032F07A95EE0FFF1F661F111CC9
:10238600F9CFEF2FF62F612D5F938ADF5F910895C6
:102396004F93AF01FD01DA01AB01BC01CA01402D2B
:1023A600012C142E4F910895EA0FFB1F681F089504
:1023B600E095F0956095EF5FFF4F6F4F08955F933F
:1023C60081DF903871F150E8152604C05F937ADFFB
:1023D600903839F1703821F1572F591B2BF112F42F
:1023E600D7DFFACF583118F0AA27BB2788275830ED
:1023F60028F0AB2FB82F88275850F9CF552329F04E
:102406008695B795A7955A95D9F7502D512572F00F
:10241600CBDF38F46795F795E795739513F420C0ED
:10242600B7DF3EDF5F910895D8F7FBCFEA1BFB0BC2
:10243600680B51F010F40094BBDF662392F3EE0FA5
:10244600FF1F661F7A95CBF7EE27FF2766277727AC
:102456005F910895EFEFFFEF6FE77FEF5F910895CC
:10246600EFEFFFEF6FE77FE75F9108955F932ADF56
:10247600703851F3903841F301240894791F23F4FE
:102486001CF300203AF3ECCF0F921F932F933F9348
:102496004F93112722279927689FA0018F9F302DE0
:1024A600410D591F6B9F300D411D591F8E9F27D01F
:1024B600BF9F25D06A9F23D0BE9F1DD0AF9F1BD044
:1024C600AE9F110D291F391F491F591FE32FF42FE6
:1024D600652F522F4F913F912F911F910F90662399
:1024E6002AF0550FEE1FFF1F661F02C073954BF2B1
:1024F600CDDE5F910895100D211D391F02C0200DFC
:10250600311D491F591F08955F93DCDE703821F491
:1025160011200AF49FCFA4CF903809F495CF012457
:102526000894970B1BF4D4F30020F3CF792F1F9355
:102536002F933F934F9311241127222733274427A4
:10254600552790E2AE17BF078607410730F0AE1B4E
:10255600BF0B860B410B089401C08894551F221FA0
:10256600331F111CAA1FBB1F881F441F9A9551F7C2
:10257600F901612D4F913F912F911F91662332F002
:10258600550FEE1FFF1F661F7A9543F27FDE5F91A0
:10259600089599239AF0772342F0971748F029F483
:1025A600AE17BF07860720F031F0989488940895F7
:1025B6009894089408951894889408957723C2F7F8
:1025C600971798F3A9F7EA17FB07680788F399F3B3
:1025D600ECCF0024AF0DB01D0895AE0FBF1F861FB0
:1025E600971F0895F195E195F0400895F09560954F
:1025F6007095E195FF4F6F4F7F4F0895EE230E2E96
:10260600EA2F19F0EE0F0A94E9F70895EE0FFF1F6F
:10261600EE0FFF1FEE0FFF1F0895F695E795F6954F
:10262600E795F695E79508956F2F660F660B762F5B
:1026360008958B2F880F880B982F0895AE17E1E029
:1026460008F0EE270895FA9FF02DEB9FF00DEA9F14
:10265600E02DF10D08957A9F702D6B9F700DF89FF8
:10266600700DE99F700D6A9F602D710DFB9F600DC7
:10267600711DE89F600D711D8827FA9FF02D610D71
:10268600781FEB9FF00D611D781FEA9FE02DF10D7D
:10269600681F781F089509D0D6DF0EF4A3DF0895CA
:1026A60012D0D9DF0EF4A2DF0895E894F7FF02C036
:1026B60099DF6894B7FF06C0A095B095119600F80B
:1026C600039400FA0895E89477FF02C08FDF6894B8
:1026D60097FF0BC00024A095B09580959095119614
:1026E600801D901D00F8039400FA0895ED91FC9169
:1026F60011970895ED91FD916D917D9108957E93C9
:102706006E93FE93EE9308950590F491E02D08954F
:10271600E881F9816A817B810895A881B9818A81DE
:102726009B810895E883F9836A837B8308957A936E
:102736006A93FA93EA9308959A938A93BA93AA931B
:102746000895689401C0E89401D007DE182E862FFC
:10275600612D192E972F712D1B2EBF2FF12D1A2E9D
:10276600AE2FE12D08955A934A933A932A931A93DA
:102776000A9308955D814C813B812A8119810881E4
:102786000895AC0FBD1F05900D928A95E1F7089547
:00000001FF
