:100000000C942A000C9400000C9400000C94000046
:100010000C9400000C9400000C9400000C94000060
:100020000C9400000C9400000C9400000C94000050
:100030000C9400000C9400000C9400000C94000040
:100040000C9400000C9400000C9400000C94000030
:100050000C940000F894EE27ECBBF1E0FBBFEBBF83
:10006000E5BF8DE0A2E0BB27ED938A95E9F780E03C
:1000700098E0A0E6ED930197E9F7EFE5EDBFE8E042
:10008000EEBFC0E6D2E00C9445002497ECE0E88394
:10009000E9E0E983E3E0EA83E6E0EB83EFE0E4BB59
:1000A000E0E0E5BB00E010E00430E0E01E0764F4AF
:1000B000DE01A00FB11FEC91E5BBA8EEB3E00E94FA
:1000C00066000F5F1F4FF0CFEDCFFFCF109639F0D6
:1000D00080ED97E00197F1F7A8951197C9F708957A
:00000001FF
