:060000000C9430000C948A
:1000060000000C9400000C9400000C9400000C946A
:1000160000000C9400000C9400000C9400000C945A
:1000260000000C9400000C9400000C9400000C944A
:1000360000000C9400000C9400000C9400000C943A
:1000460000000C9400000C9400000C9400001413A3
:100056001E060400600254000000F894EE27ECBB74
:10006600F1E0FBBFEBBFE5BF8DE0A2E0BB27ED9360
:100076008A95E9F780E098E0A0E6ED930197E9F725
:10008600E8E5F0E085919591009761F0A591B5912D
:1000960005901590BF01F00105900D920197E1F7CB
:1000A600FB01F0CFEFE5EDBFE8E0EEBFC0E6D2E042
:1000B6000C945D00EFE0EABBE0E0EBBBEFEFE7BBE3
:1000C600E0E0E8BBEFEFE4BBE0E0E5BBEFEFE1BB70
:1000D600E0E0E2BB44245524E4E0F0E04E165F067F
:1000E6005CF4E0917402E5BBA8EEB3E00E948100E7
:1000F600F20131962F01F0CFEDCFFFCF109639F0F8
:10010600A89580ED97E00197F1F71197C9F7089543
:00000001FF
