:040000000C942F002D
:100004000C9400000C9400000C9400000C9400006C
:100014000C9400000C9400000C9400000C9400005C
:100024000C9400000C9400000C9400000C9400004C
:100034000C9400000C9400000C9400000C9400003C
:100044000C9400000C9400000C9400000C9400002C
:100054003F065B4F666D7D077F6FF894EE27ECBB20
:10006400F1E0FBBFEBBFE5BF8DE0A2E0BB27ED9362
:100074008A95E9F780E098E0A0E6ED930197E9F727
:10008400EFE5EDBFE8E0EEBFC0E6D2E00C944A0035
:100094002A978AE0A0E0B0E0E4E5F0E00E94B30033
:1000A400EFEFEABBE0E0EBBBEFEFE7BBE0E0E8BB80
:1000B400EFEFE4BBE0E0E5BBEFEFE5BBA898AB985E
:1000C40007E010E0112332F02BD030D036D00150AD
:1000D4001040F8CFAB9AAC9801E010E011232AF05D
:1000E4001FD030D001501040F9CFAC9AA89AAD98E7
:1000F400AA9807E010E0112332F018D0EBBB22D00D
:1001040001501040F8CFAA9AA99801E010E01123F9
:100114002AF006D017D001501040F9CFCDCFFFCF31
:10012400DE01A00FB11FEC91EBBB0895F8013296EC
:10013400DE01AE0FBF1FEC910895E8BBA8EEB3E05B
:100144000C94A900DE01A00FB11FEC91F6CF10961C
:1001540039F080ED97E00197F1F7A8951197C9F769
:100164000895AC0FBD1F05900D928A95E1F708958F
:00000001FF
