:040000000C942F002D
:100004000C9400000C9400000C9400000C9400006C
:100014000C9400000C9400000C9400000C9400005C
:100024000C9400000C9400000C9400000C9400004C
:100034000C9400000C9400000C9400000C9400003C
:100044000C9400000C9400000C9400000C9400002C
:1000540001000100050054000000F894EE27ECBBF9
:10006400F1E0FBBFEBBFE5BF8DE0A2E0BB27ED9362
:100074008A95E9F780E098E0A0E6ED930197E9F727
:10008400E6E5F0E085919591009761F0A591B59131
:1000940005901590BF01F00105900D920197E1F7CD
:1000A400FB01F0CFEFE5EDBFE8E0EEBFC0E6D2E044
:1000B4000C945C00E0E0E7BBEFEFE8BBE1BBE0E001
:1000C400E2BBB29902C041D009F00DC0B29902C09E
:1000D4003CD009F007C0EAEAE2BB3FD0E5E5E2BB69
:1000E4003CD0F4CF02C0E0E0E2BBB29910C0B299B8
:1000F4000DC0EFEFE2BBA4EFB1E00E94B300E0E07B
:10010400E2BBA4EFB1E00E94B300F1CF02C0E0E093
:10011400E2BBB39916C0B39913C0E1E05E2EE0E8E8
:100124005E1620F452BA19D0550CF9CFE0E85E2ED1
:10013400E0E0E51520F452BA10D05694F9CFEBCF95
:1001440002C0E0E0E2BBBDCFFFCFA0E0B399A1E0E5
:10015400E0E00E94BD00E1300895A8ECB0E00C940A
:10016400B300109639F0A89580ED97E00197F1F768
:100174001197C9F70895EA17E1E009F0EE27089509
:00000001FF
