:020000000C945E
:1000020039000C9400000C9466000C9400000C94CF
:1000120000000C9400000C9400000C9400000C945E
:1000220000000C9475000C9400000C946E000C946B
:1000320000000C9400000C9400000C9400000C943E
:1000420000000C9400000C9400000C9400000C942E
:1000520000000000000000193F065B4F666D7D073F
:100062007F6F0600040054000A0060025A0000007C
:10007200F894EE27ECBBF1E0FBBFEBBFE5BF8DE0F0
:10008200A2E0BB27ED938A95E9F780E098E0A0E62D
:10009200ED930197E9F7E4E6F0E0859195910097F9
:1000A20061F0A591B59105901590BF01F001059001
:1000B2000D920197E1F7FB01F0CFEFE5EDBFE8E02C
:1000C200EEBFC0E6D2E00C947600EA93E0E09E2E0A
:1000D2007E2E4E2E5E2EE9911895EA93EFB7539439
:1000E2006394EFBFE99118951895EFEFEABBE0E052
:1000F200EBBBE7BBE8BBEFEFE4BBE0E0E5BBE0E373
:10010200E1BBE0E0E2BBE4E0E3BFE0E0E2BFECBF82
:10011200E1EAEFBDEBE0EEBDE0E0EDBDECBDE7BD39
:10012200E6BDEBBDEABDE9BDE8BDE5E0E9BFEBB781
:10013200E068EBBFE8E0E5BFE0E0E4BFE0E8EABF8B
:100142007894E6E05E1638F055244394EAE5E41527
:1001520011F4442473949ABCE4EF6E1618F06624EA
:10016200E9E19E0EA42D10D0EBEF18D0A42D1ED0E5
:10017200E7EF14D0A72D08D0EEEF10D0A72D16D0A0
:10018200EDEF0CD0DECFFFCFB0E0EAE0F0E00E946E
:10019200F800E05AFD4FE081E5BB0895EBBB84EF28
:1001A20091E00197F1F7EFEFEBBB0895BB27EAE08F
:1001B200F0E00E94FD00E05AFD4FE081E5BB0895AA
:1001C200F195E195F04008950024112490E1AA0FE1
:1001D200BB1F001C111C0E1A1F0A18F40E0E1F1E44
:1001E20001C0A1609A9599F7FD01D001089512D03E
:1001F200EBDF0EF4E5DF0895E894B7FF04C0A095A5
:10020200B09511966894F7FDDBDFDEDFFD010EF499
:10021200D7DF0895E894F7FF02C0D2DF6894B7FFF2
:1002220006C0A095B095119600F8039400FA0895BF
:00000001FF
