:0E0000000C943F000C9400000C9400000C9433
:10000E0000000C9400000C9400000C9400000C9462
:10001E0000000C9400000C9400000C9400000C9452
:10002E0000000C9400000C9400000C9400000C9442
:10003E0000000C9400000C9400000C9400000C9432
:10004E0000000C940000496E20746865206E616D8E
:10005E0065206F6600476F64000080C00F0060026D
:10006E00540004006F026300020073026800000077
:10007E00F894EE27ECBBF1E0FBBFEBBFE5BF8DE0E4
:10008E00A2E0BB27ED938A95E9F780E098E0A0E621
:10009E00ED930197E9F7EAE6F0E0859195910097E7
:1000AE0061F0A591B59105901590BF01F0010590F5
:1000BE000D920197E1F7FB01F0CFEFE5EDBFE8E020
:1000CE00EEBFC0E6D2E00C946C00E0E0EABBEBBB06
:1000DE00A0E16DD0E1E0EA93A0E02CD0A0E6B2E082
:1000EE0055D0E6E0EA93A1E025D0AFE6B2E04ED0DF
:1000FE00F1CFFFCFAA93EBB3EF70AE2FE881E07F85
:10010E00EA2BEBBB8DE08A95F1F7DA9A8DE08A95B2
:10011E00F1F7DA988DE08A95F1F772C0AA93A8816B
:10012E00E9DFE881E295E883A881E4DF85E88A9536
:10013E00F1F766C0AA93E881F0E0ED58FD4FE0813B
:10014E00A981AE0FEBDF5980488022960895A2E078
:10015E0059D0ACE0E3DFA1E055D0E0E04E2E5E2EAC
:10016E000895AA93A881AA3011F0571448F0E0E040
:10017E00EA934394A42DDEDFA881AA3009F440C08F
:10018E005394D89AA881CADFD8983AC0BA93AA9342
:10019E001A93A981BA81ED91A983BA831E2FE030FB
:1001AE0019F0A12FDEDFF5CF188123960895AA93BB
:1001BE00EAB3E06FEABBD29AD09AD19ADA98D8987D
:1001CE00D9987880E881E058E0937502E881E05490
:1001DE00E0937602A4E1B0E00E94150118D017D08A
:1001EE0016D0A0E287DF88EC90E00197F1F7A8E245
:1001FE0095DFA4E093DFA5E891DFA6E08FDFA7DF10
:10020E00219608958BDFA3E0B0E00C941501A0E3D6
:10021E0071DF88EC90E00197F1F70895109639F0B0
:10022E0080ED97E00197F1F7A8951197C9F708951A
:00000001FF
