:080000000C942F000C94000089
:100008000C9400000C9400000C9400000C94000068
:100018000C9400000C9400000C9400000C94000058
:100028000C9400000C9400000C9400000C94000048
:100038000C9400000C9400000C9400000C94000038
:100048000C9400000C9400000C94000001000100C6
:10005800050054000000F894EE27ECBBF1E0FBBF6C
:10006800EBBFE5BF8DE0A2E0BB27ED938A95E9F7EA
:1000780080E098E0A0E6ED930197E9F7E6E5F0E087
:1000880085919591009761F0A591B591059015908E
:10009800BF01F00105900D920197E1F7FB01F0CF48
:1000A800EFE5EDBFE8E0EEBFC0E6D2E00C945C00FF
:1000B800EFEFEABBE0E0EBBBEFEFE7BBE0E0E8BB6C
:1000C800EFEFE4BBE0E0E5BBEFEFE1BBE0E0E2BB74
:1000D8005BBAA4E6B0E00E947A00550C552011F4F2
:1000E800E1E001C0E52D5E2EF3CFFFCF109639F089
:1000F800A89580ED97E00197F1F71197C9F7089552
:00000001FF
